{
  "transactions": [
    {
      "hash": "0x2d3c73d167bc6378e8fe72c14ecf61c99de4f35cc3c6e849a8675c4566f70185",
      "transactionType": "CALL",
      "contractName": null,
      "contractAddress": "0x779877a7b0d9e8603169ddbd7836e478b4624789",
      "function": "transferAndCall(address,uint256,bytes)",
      "arguments": [
        "0x9DdfaCa8183c41ad55329BdeeD9F6A8d53168B1B",
        "3000000000000000000",
        "0xdc7359df6e50b9d259a6bd44f5892be671ec53b1118d70816acc7c49fd479259"
      ],
      "transaction": {
        "from": "0xf50d86e711390e529410419fb62376a71956d1c0",
        "to": "0x779877a7b0d9e8603169ddbd7836e478b4624789",
        "gas": "0x1c1ff",
        "value": "0x0",
        "input": "0x4000aea00000000000000000000000009ddfaca8183c41ad55329bdeed9f6a8d53168b1b00000000000000000000000000000000000000000000000029a2241af62c000000000000000000000000000000000000000000000000000000000000000000600000000000000000000000000000000000000000000000000000000000000020dc7359df6e50b9d259a6bd44f5892be671ec53b1118d70816acc7c49fd479259",
        "nonce": "0x3c",
        "chainId": "0xaa36a7"
      },
      "additionalContracts": [],
      "isFixedGasLimit": false
    }
  ],
  "receipts": [
    {
      "status": "0x1",
      "cumulativeGasUsed": "0xdb0a5c",
      "logs": [
        {
          "address": "0x779877a7b0d9e8603169ddbd7836e478b4624789",
          "topics": [
            "0xddf252ad1be2c89b69c2b068fc378daa952ba7f163c4a11628f55a4df523b3ef",
            "0x000000000000000000000000f50d86e711390e529410419fb62376a71956d1c0",
            "0x0000000000000000000000009ddfaca8183c41ad55329bdeed9f6a8d53168b1b"
          ],
          "data": "0x00000000000000000000000000000000000000000000000029a2241af62c0000",
          "blockHash": "0x80c7594ab35987c9f69059014963ec0a3857452bedd49993f78212a4194127b8",
          "blockNumber": "0x6573ab",
          "transactionHash": "0x2d3c73d167bc6378e8fe72c14ecf61c99de4f35cc3c6e849a8675c4566f70185",
          "transactionIndex": "0x5f",
          "logIndex": "0x73",
          "removed": false
        },
        {
          "address": "0x779877a7b0d9e8603169ddbd7836e478b4624789",
          "topics": [
            "0xe19260aff97b920c7df27010903aeb9c8d2be5d310a2c67824cf3f15396e4c16",
            "0x000000000000000000000000f50d86e711390e529410419fb62376a71956d1c0",
            "0x0000000000000000000000009ddfaca8183c41ad55329bdeed9f6a8d53168b1b"
          ],
          "data": "0x00000000000000000000000000000000000000000000000029a2241af62c000000000000000000000000000000000000000000000000000000000000000000400000000000000000000000000000000000000000000000000000000000000020dc7359df6e50b9d259a6bd44f5892be671ec53b1118d70816acc7c49fd479259",
          "blockHash": "0x80c7594ab35987c9f69059014963ec0a3857452bedd49993f78212a4194127b8",
          "blockNumber": "0x6573ab",
          "transactionHash": "0x2d3c73d167bc6378e8fe72c14ecf61c99de4f35cc3c6e849a8675c4566f70185",
          "transactionIndex": "0x5f",
          "logIndex": "0x74",
          "removed": false
        },
        {
          "address": "0x9ddfaca8183c41ad55329bdeed9f6a8d53168b1b",
          "topics": [
            "0x1ced9348ff549fceab2ac57cd3a9de38edaaab274b725ee82c23e8fc8c4eec7a",
            "0xdc7359df6e50b9d259a6bd44f5892be671ec53b1118d70816acc7c49fd479259"
          ],
          "data": "0x000000000000000000000000000000000000000000000000000000000000000000000000000000000000000000000000000000000000000029a2241af62c0000",
          "blockHash": "0x80c7594ab35987c9f69059014963ec0a3857452bedd49993f78212a4194127b8",
          "blockNumber": "0x6573ab",
          "transactionHash": "0x2d3c73d167bc6378e8fe72c14ecf61c99de4f35cc3c6e849a8675c4566f70185",
          "transactionIndex": "0x5f",
          "logIndex": "0x75",
          "removed": false
        }
      ],
      "logsBloom": "0x00000004000000000000000000000000000000000020000000000000020000000000020000000000040000000000000000000000000000000000000000008000000000000000000000000008000000000000000000000000400020000020000008000000000000000000000000000000000000000000000000000010000040000000000000000000000000010000800000000020000000000000000000000000000000000000000000000000010000000000000000000000000004000000000000000002000000000000000040000000000000000000000100000000000000000010000000000000800000000000000000000000000000000000040000000000",
      "type": "0x2",
      "transactionHash": "0x2d3c73d167bc6378e8fe72c14ecf61c99de4f35cc3c6e849a8675c4566f70185",
      "transactionIndex": "0x5f",
      "blockHash": "0x80c7594ab35987c9f69059014963ec0a3857452bedd49993f78212a4194127b8",
      "blockNumber": "0x6573ab",
      "gasUsed": "0x133b1",
      "effectiveGasPrice": "0x100fbb83b",
      "from": "0xf50d86e711390e529410419fb62376a71956d1c0",
      "to": "0x779877a7b0d9e8603169ddbd7836e478b4624789",
      "contractAddress": null
    }
  ],
  "libraries": [],
  "pending": [],
  "returns": {},
  "timestamp": 1725705631,
  "chain": 11155111,
  "commit": "8e5dc23"
}